0123443211JAMES RONCESVALLES                                password123                                       M-W-F                                             8:30 AM - 9:30 PM                                 0000000300
0041232131JAMES 123                                         123123                                            M-W-F                                             8:30 AM - 9:30 PM                                 0000000300
0000000000131231                                            31231                                             31231                                             312312                                            0000031231
